{
  "_format": "hh-sol-artifact-1",
  "contractName": "MyEpicNFT",
  "sourceName": "contracts/MyEpicNFT.sol",
  "abi": [
    {
      "inputs": [],
      "stateMutability": "nonpayable",
      "type": "constructor"
    },
    {
      "anonymous": false,
      "inputs": [
        {
          "indexed": true,
          "internalType": "address",
          "name": "owner",
          "type": "address"
        },
        {
          "indexed": true,
          "internalType": "address",
          "name": "approved",
          "type": "address"
        },
        {
          "indexed": true,
          "internalType": "uint256",
          "name": "tokenId",
          "type": "uint256"
        }
      ],
      "name": "Approval",
      "type": "event"
    },
    {
      "anonymous": false,
      "inputs": [
        {
          "indexed": true,
          "internalType": "address",
          "name": "owner",
          "type": "address"
        },
        {
          "indexed": true,
          "internalType": "address",
          "name": "operator",
          "type": "address"
        },
        {
          "indexed": false,
          "internalType": "bool",
          "name": "approved",
          "type": "bool"
        }
      ],
      "name": "ApprovalForAll",
      "type": "event"
    },
    {
      "anonymous": false,
      "inputs": [
        {
          "indexed": false,
          "internalType": "address",
          "name": "sender",
          "type": "address"
        },
        {
          "indexed": false,
          "internalType": "uint256",
          "name": "tokenId",
          "type": "uint256"
        }
      ],
      "name": "NewEpicNFTMinted",
      "type": "event"
    },
    {
      "anonymous": false,
      "inputs": [
        {
          "indexed": true,
          "internalType": "address",
          "name": "from",
          "type": "address"
        },
        {
          "indexed": true,
          "internalType": "address",
          "name": "to",
          "type": "address"
        },
        {
          "indexed": true,
          "internalType": "uint256",
          "name": "tokenId",
          "type": "uint256"
        }
      ],
      "name": "Transfer",
      "type": "event"
    },
    {
      "inputs": [
        {
          "internalType": "address",
          "name": "to",
          "type": "address"
        },
        {
          "internalType": "uint256",
          "name": "tokenId",
          "type": "uint256"
        }
      ],
      "name": "approve",
      "outputs": [],
      "stateMutability": "nonpayable",
      "type": "function"
    },
    {
      "inputs": [
        {
          "internalType": "address",
          "name": "owner",
          "type": "address"
        }
      ],
      "name": "balanceOf",
      "outputs": [
        {
          "internalType": "uint256",
          "name": "",
          "type": "uint256"
        }
      ],
      "stateMutability": "view",
      "type": "function"
    },
    {
      "inputs": [
        {
          "internalType": "uint256",
          "name": "tokenId",
          "type": "uint256"
        }
      ],
      "name": "getApproved",
      "outputs": [
        {
          "internalType": "address",
          "name": "",
          "type": "address"
        }
      ],
      "stateMutability": "view",
      "type": "function"
    },
    {
      "inputs": [],
      "name": "getTotalNFTsMintedSoFar",
      "outputs": [
        {
          "internalType": "uint256",
          "name": "",
          "type": "uint256"
        }
      ],
      "stateMutability": "view",
      "type": "function"
    },
    {
      "inputs": [
        {
          "internalType": "address",
          "name": "owner",
          "type": "address"
        },
        {
          "internalType": "address",
          "name": "operator",
          "type": "address"
        }
      ],
      "name": "isApprovedForAll",
      "outputs": [
        {
          "internalType": "bool",
          "name": "",
          "type": "bool"
        }
      ],
      "stateMutability": "view",
      "type": "function"
    },
    {
      "inputs": [],
      "name": "makeAnEpicNFT",
      "outputs": [],
      "stateMutability": "nonpayable",
      "type": "function"
    },
    {
      "inputs": [],
      "name": "name",
      "outputs": [
        {
          "internalType": "string",
          "name": "",
          "type": "string"
        }
      ],
      "stateMutability": "view",
      "type": "function"
    },
    {
      "inputs": [
        {
          "internalType": "uint256",
          "name": "tokenId",
          "type": "uint256"
        }
      ],
      "name": "ownerOf",
      "outputs": [
        {
          "internalType": "address",
          "name": "",
          "type": "address"
        }
      ],
      "stateMutability": "view",
      "type": "function"
    },
    {
      "inputs": [
        {
          "internalType": "uint256",
          "name": "tokenId",
          "type": "uint256"
        }
      ],
      "name": "pickRandomColor",
      "outputs": [
        {
          "internalType": "string",
          "name": "",
          "type": "string"
        }
      ],
      "stateMutability": "view",
      "type": "function"
    },
    {
      "inputs": [
        {
          "internalType": "uint256",
          "name": "tokenId",
          "type": "uint256"
        }
      ],
      "name": "pickRandomFirstWord",
      "outputs": [
        {
          "internalType": "string",
          "name": "",
          "type": "string"
        }
      ],
      "stateMutability": "view",
      "type": "function"
    },
    {
      "inputs": [
        {
          "internalType": "uint256",
          "name": "tokenId",
          "type": "uint256"
        }
      ],
      "name": "pickRandomSecondWord",
      "outputs": [
        {
          "internalType": "string",
          "name": "",
          "type": "string"
        }
      ],
      "stateMutability": "view",
      "type": "function"
    },
    {
      "inputs": [
        {
          "internalType": "uint256",
          "name": "tokenId",
          "type": "uint256"
        }
      ],
      "name": "pickRandomThirdWord",
      "outputs": [
        {
          "internalType": "string",
          "name": "",
          "type": "string"
        }
      ],
      "stateMutability": "view",
      "type": "function"
    },
    {
      "inputs": [
        {
          "internalType": "address",
          "name": "from",
          "type": "address"
        },
        {
          "internalType": "address",
          "name": "to",
          "type": "address"
        },
        {
          "internalType": "uint256",
          "name": "tokenId",
          "type": "uint256"
        }
      ],
      "name": "safeTransferFrom",
      "outputs": [],
      "stateMutability": "nonpayable",
      "type": "function"
    },
    {
      "inputs": [
        {
          "internalType": "address",
          "name": "from",
          "type": "address"
        },
        {
          "internalType": "address",
          "name": "to",
          "type": "address"
        },
        {
          "internalType": "uint256",
          "name": "tokenId",
          "type": "uint256"
        },
        {
          "internalType": "bytes",
          "name": "_data",
          "type": "bytes"
        }
      ],
      "name": "safeTransferFrom",
      "outputs": [],
      "stateMutability": "nonpayable",
      "type": "function"
    },
    {
      "inputs": [
        {
          "internalType": "address",
          "name": "operator",
          "type": "address"
        },
        {
          "internalType": "bool",
          "name": "approved",
          "type": "bool"
        }
      ],
      "name": "setApprovalForAll",
      "outputs": [],
      "stateMutability": "nonpayable",
      "type": "function"
    },
    {
      "inputs": [
        {
          "internalType": "bytes4",
          "name": "interfaceId",
          "type": "bytes4"
        }
      ],
      "name": "supportsInterface",
      "outputs": [
        {
          "internalType": "bool",
          "name": "",
          "type": "bool"
        }
      ],
      "stateMutability": "view",
      "type": "function"
    },
    {
      "inputs": [],
      "name": "symbol",
      "outputs": [
        {
          "internalType": "string",
          "name": "",
          "type": "string"
        }
      ],
      "stateMutability": "view",
      "type": "function"
    },
    {
      "inputs": [
        {
          "internalType": "uint256",
          "name": "tokenId",
          "type": "uint256"
        }
      ],
      "name": "tokenURI",
      "outputs": [
        {
          "internalType": "string",
          "name": "",
          "type": "string"
        }
      ],
      "stateMutability": "view",
      "type": "function"
    },
    {
      "inputs": [
        {
          "internalType": "address",
          "name": "from",
          "type": "address"
        },
        {
          "internalType": "address",
          "name": "to",
          "type": "address"
        },
        {
          "internalType": "uint256",
          "name": "tokenId",
          "type": "uint256"
        }
      ],
      "name": "transferFrom",
      "outputs": [],
      "stateMutability": "nonpayable",
      "type": "function"
    }
  ],
  "bytecode": "0x608060405260405180610100016040528060d381526020016200470860d39139600890805190602001906200003692919062000705565b50604051806080016040528060568152602001620047db60569139600990805190602001906200006892919062000705565b506040518060c001604052806040518060400160405280601181526020017f4d616e6368657374657220556e6974656400000000000000000000000000000081525081526020016040518060400160405280600f81526020017f4d616e636865737465722043697479000000000000000000000000000000000081525081526020016040518060400160405280600781526020017f417273656e616c0000000000000000000000000000000000000000000000000081525081526020016040518060400160405280600981526020017f4c69766572706f6f6c000000000000000000000000000000000000000000000081525081526020016040518060400160405280600981526020017f546f7474656e68616d000000000000000000000000000000000000000000000081525081526020016040518060400160405280600781526020017f4368656c73656100000000000000000000000000000000000000000000000000815250815250600a906006620001e692919062000796565b5060405180606001604052806040518060400160405280600481526020017f66616e730000000000000000000000000000000000000000000000000000000081525081526020016040518060400160405280600781526020017f706c61796572730000000000000000000000000000000000000000000000000081525081526020016040518060400160405280600781526020017f636f616368657300000000000000000000000000000000000000000000000000815250815250600b906003620002b3929190620007fd565b5060405180608001604052806040518060400160405280600481526020017f726f636b0000000000000000000000000000000000000000000000000000000081525081526020016040518060400160405280600481526020017f7375636b0000000000000000000000000000000000000000000000000000000081525081526020016040518060400160405280600d81526020017f61726520776f7274686c6573730000000000000000000000000000000000000081525081526020016040518060400160405280600c81526020017f6172652074686520626573740000000000000000000000000000000000000000815250815250600c906004620003bb92919062000864565b506040518060c001604052806040518060400160405280600381526020017f726564000000000000000000000000000000000000000000000000000000000081525081526020016040518060400160405280600781526020017f233038433241380000000000000000000000000000000000000000000000000081525081526020016040518060400160405280600581526020017f626c61636b00000000000000000000000000000000000000000000000000000081525081526020016040518060400160405280600681526020017f79656c6c6f77000000000000000000000000000000000000000000000000000081525081526020016040518060400160405280600481526020017f626c75650000000000000000000000000000000000000000000000000000000081525081526020016040518060400160405280600581526020017f677265656e000000000000000000000000000000000000000000000000000000815250815250600d9060066200053992919062000796565b503480156200054757600080fd5b506040518060400160405280600981526020017f5371756172654e465400000000000000000000000000000000000000000000008152506040518060400160405280600681526020017f53515541524500000000000000000000000000000000000000000000000000008152508160009080519060200190620005cc92919062000705565b508060019080519060200190620005e592919062000705565b505050620006336040518060400160405280601e81526020017f54686973206973206d79204e465420636f6e74726163742e20576f61682100008152506200063960201b6200130d1760201c565b62000a85565b620006d98160405160240162000650919062000999565b6040516020818303038152906040527f41304fac000000000000000000000000000000000000000000000000000000007bffffffffffffffffffffffffffffffffffffffffffffffffffffffff19166020820180517bffffffffffffffffffffffffffffffffffffffffffffffffffffffff8381831617835250505050620006dc60201b60201c565b50565b60008151905060006a636f6e736f6c652e6c6f679050602083016000808483855afa5050505050565b828054620007139062000a0f565b90600052602060002090601f01602090048101928262000737576000855562000783565b82601f106200075257805160ff191683800117855562000783565b8280016001018555821562000783579182015b828111156200078257825182559160200191906001019062000765565b5b509050620007929190620008cb565b5090565b828054828255906000526020600020908101928215620007ea579160200282015b82811115620007e9578251829080519060200190620007d892919062000705565b5091602001919060010190620007b7565b5b509050620007f99190620008ea565b5090565b82805482825590600052602060002090810192821562000851579160200282015b82811115620008505782518290805190602001906200083f92919062000705565b50916020019190600101906200081e565b5b509050620008609190620008ea565b5090565b828054828255906000526020600020908101928215620008b8579160200282015b82811115620008b7578251829080519060200190620008a692919062000705565b509160200191906001019062000885565b5b509050620008c79190620008ea565b5090565b5b80821115620008e6576000816000905550600101620008cc565b5090565b5b808211156200090e576000818162000904919062000912565b50600101620008eb565b5090565b508054620009209062000a0f565b6000825580601f1062000934575062000955565b601f016020900490600052602060002090810190620009549190620008cb565b5b50565b60006200096582620009bd565b620009718185620009c8565b935062000983818560208601620009d9565b6200098e8162000a74565b840191505092915050565b60006020820190508181036000830152620009b5818462000958565b905092915050565b600081519050919050565b600082825260208201905092915050565b60005b83811015620009f9578082015181840152602081019050620009dc565b8381111562000a09576000848401525b50505050565b6000600282049050600182168062000a2857607f821691505b6020821081141562000a3f5762000a3e62000a45565b5b50919050565b7f4e487b7100000000000000000000000000000000000000000000000000000000600052602260045260246000fd5b6000601f19601f8301169050919050565b613c738062000a956000396000f3fe608060405234801561001057600080fd5b50600436106101215760003560e01c80636352211e116100ad578063b88d4fde11610071578063b88d4fde14610340578063c575757a1461035c578063c87b56dd1461038c578063de9d132f146103bc578063e985e9c5146103c657610121565b80636352211e1461027657806370a08231146102a657806395d89b41146102d6578063a22cb465146102f4578063b187301f1461031057610121565b8063095ea7b3116100f4578063095ea7b3146101c257806323b872dd146101de5780632de38d68146101fa57806342842e0e1461022a578063514dc8c61461024657610121565b806301ffc9a714610126578063060475901461015657806306fdde0314610174578063081812fc14610192575b600080fd5b610140600480360381019061013b919061270d565b6103f6565b60405161014d91906134c9565b60405180910390f35b61015e6104d8565b60405161016b9190613764565b60405180910390f35b61017c6104e9565b60405161018991906134e4565b60405180910390f35b6101ac60048036038101906101a7919061275f565b61057b565b6040516101b99190613439565b60405180910390f35b6101dc60048036038101906101d791906126d1565b610600565b005b6101f860048036038101906101f391906125cb565b610718565b005b610214600480360381019061020f919061275f565b610778565b60405161022191906134e4565b60405180910390f35b610244600480360381019061023f91906125cb565b610896565b005b610260600480360381019061025b919061275f565b6108b6565b60405161026d91906134e4565b60405180910390f35b610290600480360381019061028b919061275f565b6109d4565b60405161029d9190613439565b60405180910390f35b6102c060048036038101906102bb9190612566565b610a86565b6040516102cd9190613764565b60405180910390f35b6102de610b3e565b6040516102eb91906134e4565b60405180910390f35b61030e60048036038101906103099190612695565b610bd0565b005b61032a6004803603810190610325919061275f565b610be6565b60405161033791906134e4565b60405180910390f35b61035a6004803603810190610355919061261a565b610d04565b005b6103766004803603810190610371919061275f565b610d66565b60405161038391906134e4565b60405180910390f35b6103a660048036038101906103a1919061275f565b610e84565b6040516103b391906134e4565b60405180910390f35b6103c4610fd6565b005b6103e060048036038101906103db919061258f565b611279565b6040516103ed91906134c9565b60405180910390f35b60007f80ac58cd000000000000000000000000000000000000000000000000000000007bffffffffffffffffffffffffffffffffffffffffffffffffffffffff1916827bffffffffffffffffffffffffffffffffffffffffffffffffffffffff191614806104c157507f5b5e139f000000000000000000000000000000000000000000000000000000007bffffffffffffffffffffffffffffffffffffffffffffffffffffffff1916827bffffffffffffffffffffffffffffffffffffffffffffffffffffffff1916145b806104d157506104d0826113a6565b5b9050919050565b60006104e46007611410565b905090565b6060600080546104f890613a03565b80601f016020809104026020016040519081016040528092919081815260200182805461052490613a03565b80156105715780601f1061054657610100808354040283529160200191610571565b820191906000526020600020905b81548152906001019060200180831161055457829003601f168201915b5050505050905090565b60006105868261141e565b6105c5576040517f08c379a00000000000000000000000000000000000000000000000000000000081526004016105bc906136c4565b60405180910390fd5b6004600083815260200190815260200160002060009054906101000a900473ffffffffffffffffffffffffffffffffffffffff169050919050565b600061060b826109d4565b90508073ffffffffffffffffffffffffffffffffffffffff168373ffffffffffffffffffffffffffffffffffffffff16141561067c576040517f08c379a000000000000000000000000000000000000000000000000000000000815260040161067390613724565b60405180910390fd5b8073ffffffffffffffffffffffffffffffffffffffff1661069b61148a565b73ffffffffffffffffffffffffffffffffffffffff1614806106ca57506106c9816106c461148a565b611279565b5b610709576040517f08c379a000000000000000000000000000000000000000000000000000000000815260040161070090613604565b60405180910390fd5b6107138383611492565b505050565b61072961072361148a565b8261154b565b610768576040517f08c379a000000000000000000000000000000000000000000000000000000000815260040161075f90613744565b60405180910390fd5b610773838383611629565b505050565b606060006107ac61078884611885565b60405160200161079891906133d3565b604051602081830303815290604052611a32565b9050600a80549050816107bf9190613a7e565b9050600a81815481106107fb577f4e487b7100000000000000000000000000000000000000000000000000000000600052603260045260246000fd5b90600052602060002001805461081090613a03565b80601f016020809104026020016040519081016040528092919081815260200182805461083c90613a03565b80156108895780601f1061085e57610100808354040283529160200191610889565b820191906000526020600020905b81548152906001019060200180831161086c57829003601f168201915b5050505050915050919050565b6108b183838360405180602001604052806000815250610d04565b505050565b606060006108ea6108c684611885565b6040516020016108d69190613417565b604051602081830303815290604052611a32565b9050600d80549050816108fd9190613a7e565b9050600d8181548110610939577f4e487b7100000000000000000000000000000000000000000000000000000000600052603260045260246000fd5b90600052602060002001805461094e90613a03565b80601f016020809104026020016040519081016040528092919081815260200182805461097a90613a03565b80156109c75780601f1061099c576101008083540402835291602001916109c7565b820191906000526020600020905b8154815290600101906020018083116109aa57829003601f168201915b5050505050915050919050565b6000806002600084815260200190815260200160002060009054906101000a900473ffffffffffffffffffffffffffffffffffffffff169050600073ffffffffffffffffffffffffffffffffffffffff168173ffffffffffffffffffffffffffffffffffffffff161415610a7d576040517f08c379a0000000000000000000000000000000000000000000000000000000008152600401610a7490613644565b60405180910390fd5b80915050919050565b60008073ffffffffffffffffffffffffffffffffffffffff168273ffffffffffffffffffffffffffffffffffffffff161415610af7576040517f08c379a0000000000000000000000000000000000000000000000000000000008152600401610aee90613624565b60405180910390fd5b600360008373ffffffffffffffffffffffffffffffffffffffff1673ffffffffffffffffffffffffffffffffffffffff168152602001908152602001600020549050919050565b606060018054610b4d90613a03565b80601f0160208091040260200160405190810160405280929190818152602001828054610b7990613a03565b8015610bc65780601f10610b9b57610100808354040283529160200191610bc6565b820191906000526020600020905b815481529060010190602001808311610ba957829003601f168201915b5050505050905090565b610be2610bdb61148a565b8383611a65565b5050565b60606000610c1a610bf684611885565b604051602001610c06919061336c565b604051602081830303815290604052611a32565b9050600b8054905081610c2d9190613a7e565b9050600b8181548110610c69577f4e487b7100000000000000000000000000000000000000000000000000000000600052603260045260246000fd5b906000526020600020018054610c7e90613a03565b80601f0160208091040260200160405190810160405280929190818152602001828054610caa90613a03565b8015610cf75780601f10610ccc57610100808354040283529160200191610cf7565b820191906000526020600020905b815481529060010190602001808311610cda57829003601f168201915b5050505050915050919050565b610d15610d0f61148a565b8361154b565b610d54576040517f08c379a0000000000000000000000000000000000000000000000000000000008152600401610d4b90613744565b60405180910390fd5b610d6084848484611bd2565b50505050565b60606000610d9a610d7684611885565b604051602001610d86919061334a565b604051602081830303815290604052611a32565b9050600c8054905081610dad9190613a7e565b9050600c8181548110610de9577f4e487b7100000000000000000000000000000000000000000000000000000000600052603260045260246000fd5b906000526020600020018054610dfe90613a03565b80601f0160208091040260200160405190810160405280929190818152602001828054610e2a90613a03565b8015610e775780601f10610e4c57610100808354040283529160200191610e77565b820191906000526020600020905b815481529060010190602001808311610e5a57829003601f168201915b5050505050915050919050565b6060610e8f8261141e565b610ece576040517f08c379a0000000000000000000000000000000000000000000000000000000008152600401610ec5906136a4565b60405180910390fd5b6000600660008481526020019081526020016000208054610eee90613a03565b80601f0160208091040260200160405190810160405280929190818152602001828054610f1a90613a03565b8015610f675780601f10610f3c57610100808354040283529160200191610f67565b820191906000526020600020905b815481529060010190602001808311610f4a57829003601f168201915b505050505090506000610f78611c2e565b9050600081511415610f8e578192505050610fd1565b600082511115610fc3578082604051602001610fab929190613274565b60405160208183030381529060405292505050610fd1565b610fcc84611c45565b925050505b919050565b6000610fe26007611410565b905060328110611027576040517f08c379a000000000000000000000000000000000000000000000000000000000815260040161101e90613564565b60405180910390fd5b600061103282610778565b9050600061103f83610be6565b9050600061104c84610d66565b9050600083838360405160200161106593929190613298565b60405160208183030381529060405290506000611081866108b6565b9050600060088260098560405160200161109e94939291906132df565b604051602081830303815290604052905060006110e3846110be84611cec565b6040516020016110cf92919061338e565b604051602081830303815290604052611cec565b90506000816040516020016110f891906133f5565b60405160208183030381529060405290506111476040518060400160405280601581526020017f0a2d2d2d2d2d2d2d2d2d2d2d2d2d2d2d2d2d2d2d2d000000000000000000000081525061130d565b61116f8160405160200161115b9190613328565b60405160208183030381529060405261130d565b6111ad6040518060400160405280601581526020017f0a2d2d2d2d2d2d2d2d2d2d2d2d2d2d2d2d2d2d2d2d000000000000000000000081525061130d565b6111b68161130d565b6111f46040518060400160405280601581526020017f2d2d2d2d2d2d2d2d2d2d2d2d2d2d2d2d2d2d2d2d0a000000000000000000000081525061130d565b6111fe338a611eaa565b6112088982611ec8565b6112126007611f3c565b611235604051806060016040528060258152602001613bd9602591398a33611f52565b7febb98688741ffa4c7589bf325de30cf7becb63de567842e1ccdb6cb949fdc82c338a6040516112669291906134a0565b60405180910390a1505050505050505050565b6000600560008473ffffffffffffffffffffffffffffffffffffffff1673ffffffffffffffffffffffffffffffffffffffff16815260200190815260200160002060008373ffffffffffffffffffffffffffffffffffffffff1673ffffffffffffffffffffffffffffffffffffffff16815260200190815260200160002060009054906101000a900460ff16905092915050565b6113a38160405160240161132191906134e4565b6040516020818303038152906040527f41304fac000000000000000000000000000000000000000000000000000000007bffffffffffffffffffffffffffffffffffffffffffffffffffffffff19166020820180517bffffffffffffffffffffffffffffffffffffffffffffffffffffffff8381831617835250505050611ff1565b50565b60007f01ffc9a7000000000000000000000000000000000000000000000000000000007bffffffffffffffffffffffffffffffffffffffffffffffffffffffff1916827bffffffffffffffffffffffffffffffffffffffffffffffffffffffff1916149050919050565b600081600001549050919050565b60008073ffffffffffffffffffffffffffffffffffffffff166002600084815260200190815260200160002060009054906101000a900473ffffffffffffffffffffffffffffffffffffffff1673ffffffffffffffffffffffffffffffffffffffff1614159050919050565b600033905090565b816004600083815260200190815260200160002060006101000a81548173ffffffffffffffffffffffffffffffffffffffff021916908373ffffffffffffffffffffffffffffffffffffffff160217905550808273ffffffffffffffffffffffffffffffffffffffff16611505836109d4565b73ffffffffffffffffffffffffffffffffffffffff167f8c5be1e5ebec7d5bd14f71427d1e84f3dd0314c0f7b2291e5b200ac8c7c3b92560405160405180910390a45050565b60006115568261141e565b611595576040517f08c379a000000000000000000000000000000000000000000000000000000000815260040161158c906135e4565b60405180910390fd5b60006115a0836109d4565b90508073ffffffffffffffffffffffffffffffffffffffff168473ffffffffffffffffffffffffffffffffffffffff16148061160f57508373ffffffffffffffffffffffffffffffffffffffff166115f78461057b565b73ffffffffffffffffffffffffffffffffffffffff16145b80611620575061161f8185611279565b5b91505092915050565b8273ffffffffffffffffffffffffffffffffffffffff16611649826109d4565b73ffffffffffffffffffffffffffffffffffffffff161461169f576040517f08c379a0000000000000000000000000000000000000000000000000000000008152600401611696906136e4565b60405180910390fd5b600073ffffffffffffffffffffffffffffffffffffffff168273ffffffffffffffffffffffffffffffffffffffff16141561170f576040517f08c379a0000000000000000000000000000000000000000000000000000000008152600401611706906135a4565b60405180910390fd5b61171a83838361201a565b611725600082611492565b6001600360008573ffffffffffffffffffffffffffffffffffffffff1673ffffffffffffffffffffffffffffffffffffffff16815260200190815260200160002060008282546117759190613919565b925050819055506001600360008473ffffffffffffffffffffffffffffffffffffffff1673ffffffffffffffffffffffffffffffffffffffff16815260200190815260200160002060008282546117cc9190613838565b92505081905550816002600083815260200190815260200160002060006101000a81548173ffffffffffffffffffffffffffffffffffffffff021916908373ffffffffffffffffffffffffffffffffffffffff160217905550808273ffffffffffffffffffffffffffffffffffffffff168473ffffffffffffffffffffffffffffffffffffffff167fddf252ad1be2c89b69c2b068fc378daa952ba7f163c4a11628f55a4df523b3ef60405160405180910390a4505050565b606060008214156118cd576040518060400160405280600181526020017f30000000000000000000000000000000000000000000000000000000000000008152509050611a2d565b600082905060005b600082146118ff5780806118e890613a35565b915050600a826118f8919061388e565b91506118d5565b60008167ffffffffffffffff811115611941577f4e487b7100000000000000000000000000000000000000000000000000000000600052604160045260246000fd5b6040519080825280601f01601f1916602001820160405280156119735781602001600182028036833780820191505090505b5090505b60008514611a265760018261198c9190613919565b9150600a8561199b9190613a7e565b60306119a79190613838565b60f81b8183815181106119e3577f4e487b7100000000000000000000000000000000000000000000000000000000600052603260045260246000fd5b60200101907effffffffffffffffffffffffffffffffffffffffffffffffffffffffffffff1916908160001a905350600a85611a1f919061388e565b9450611977565b8093505050505b919050565b600081604051602001611a45919061325d565b6040516020818303038152906040528051906020012060001c9050919050565b8173ffffffffffffffffffffffffffffffffffffffff168373ffffffffffffffffffffffffffffffffffffffff161415611ad4576040517f08c379a0000000000000000000000000000000000000000000000000000000008152600401611acb906135c4565b60405180910390fd5b80600560008573ffffffffffffffffffffffffffffffffffffffff1673ffffffffffffffffffffffffffffffffffffffff16815260200190815260200160002060008473ffffffffffffffffffffffffffffffffffffffff1673ffffffffffffffffffffffffffffffffffffffff16815260200190815260200160002060006101000a81548160ff0219169083151502179055508173ffffffffffffffffffffffffffffffffffffffff168373ffffffffffffffffffffffffffffffffffffffff167f17307eab39ab6107e8899845ad3d59bd9653f200f220920489ca2b5937696c3183604051611bc591906134c9565b60405180910390a3505050565b611bdd848484611629565b611be98484848461201f565b611c28576040517f08c379a0000000000000000000000000000000000000000000000000000000008152600401611c1f90613544565b60405180910390fd5b50505050565b606060405180602001604052806000815250905090565b6060611c508261141e565b611c8f576040517f08c379a0000000000000000000000000000000000000000000000000000000008152600401611c8690613704565b60405180910390fd5b6000611c99611c2e565b90506000815111611cb95760405180602001604052806000815250611ce4565b80611cc384611885565b604051602001611cd4929190613274565b6040516020818303038152906040525b915050919050565b60606000825190506000811415611d155760405180602001604052806000815250915050611ea5565b60006003600283611d269190613838565b611d30919061388e565b6004611d3c91906138bf565b90506000602082611d4d9190613838565b67ffffffffffffffff811115611d8c577f4e487b7100000000000000000000000000000000000000000000000000000000600052604160045260246000fd5b6040519080825280601f01601f191660200182016040528015611dbe5781602001600182028036833780820191505090505b5090506000604051806060016040528060408152602001613bfe604091399050600181016020830160005b86811015611e625760038101905062ffffff818a015116603f8160121c168401518060081b905060ff603f83600c1c1686015116810190508060081b905060ff603f8360061c1686015116810190508060081b905060ff603f831686015116810190508060e01b90508084526004840193505050611de9565b506003860660018114611e7c5760028114611e8c57611e97565b613d3d60f01b6002830352611e97565b603d60f81b60018303525b508484525050819450505050505b919050565b611ec48282604051806020016040528060008152506121b6565b5050565b611ed18261141e565b611f10576040517f08c379a0000000000000000000000000000000000000000000000000000000008152600401611f0790613664565b60405180910390fd5b80600660008481526020019081526020016000209080519060200190611f379291906123f2565b505050565b6001816000016000828254019250508190555050565b611fec838383604051602401611f6a93929190613506565b6040516020818303038152906040527fe3849f79000000000000000000000000000000000000000000000000000000007bffffffffffffffffffffffffffffffffffffffffffffffffffffffff19166020820180517bffffffffffffffffffffffffffffffffffffffffffffffffffffffff8381831617835250505050611ff1565b505050565b60008151905060006a636f6e736f6c652e6c6f679050602083016000808483855afa5050505050565b505050565b60006120408473ffffffffffffffffffffffffffffffffffffffff16612211565b156121a9578373ffffffffffffffffffffffffffffffffffffffff1663150b7a0261206961148a565b8786866040518563ffffffff1660e01b815260040161208b9493929190613454565b602060405180830381600087803b1580156120a557600080fd5b505af19250505080156120d657506040513d601f19601f820116820180604052508101906120d39190612736565b60015b612159573d8060008114612106576040519150601f19603f3d011682016040523d82523d6000602084013e61210b565b606091505b50600081511415612151576040517f08c379a000000000000000000000000000000000000000000000000000000000815260040161214890613544565b60405180910390fd5b805181602001fd5b63150b7a0260e01b7bffffffffffffffffffffffffffffffffffffffffffffffffffffffff1916817bffffffffffffffffffffffffffffffffffffffffffffffffffffffff1916149150506121ae565b600190505b949350505050565b6121c08383612224565b6121cd600084848461201f565b61220c576040517f08c379a000000000000000000000000000000000000000000000000000000000815260040161220390613544565b60405180910390fd5b505050565b600080823b905060008111915050919050565b600073ffffffffffffffffffffffffffffffffffffffff168273ffffffffffffffffffffffffffffffffffffffff161415612294576040517f08c379a000000000000000000000000000000000000000000000000000000000815260040161228b90613684565b60405180910390fd5b61229d8161141e565b156122dd576040517f08c379a00000000000000000000000000000000000000000000000000000000081526004016122d490613584565b60405180910390fd5b6122e96000838361201a565b6001600360008473ffffffffffffffffffffffffffffffffffffffff1673ffffffffffffffffffffffffffffffffffffffff16815260200190815260200160002060008282546123399190613838565b92505081905550816002600083815260200190815260200160002060006101000a81548173ffffffffffffffffffffffffffffffffffffffff021916908373ffffffffffffffffffffffffffffffffffffffff160217905550808273ffffffffffffffffffffffffffffffffffffffff16600073ffffffffffffffffffffffffffffffffffffffff167fddf252ad1be2c89b69c2b068fc378daa952ba7f163c4a11628f55a4df523b3ef60405160405180910390a45050565b8280546123fe90613a03565b90600052602060002090601f0160209004810192826124205760008555612467565b82601f1061243957805160ff1916838001178555612467565b82800160010185558215612467579182015b8281111561246657825182559160200191906001019061244b565b5b5090506124749190612478565b5090565b5b80821115612491576000816000905550600101612479565b5090565b60006124a86124a3846137b0565b61377f565b9050828152602081018484840111156124c057600080fd5b6124cb8482856139c1565b509392505050565b6000813590506124e281613b7c565b92915050565b6000813590506124f781613b93565b92915050565b60008135905061250c81613baa565b92915050565b60008151905061252181613baa565b92915050565b600082601f83011261253857600080fd5b8135612548848260208601612495565b91505092915050565b60008135905061256081613bc1565b92915050565b60006020828403121561257857600080fd5b6000612586848285016124d3565b91505092915050565b600080604083850312156125a257600080fd5b60006125b0858286016124d3565b92505060206125c1858286016124d3565b9150509250929050565b6000806000606084860312156125e057600080fd5b60006125ee868287016124d3565b93505060206125ff868287016124d3565b925050604061261086828701612551565b9150509250925092565b6000806000806080858703121561263057600080fd5b600061263e878288016124d3565b945050602061264f878288016124d3565b935050604061266087828801612551565b925050606085013567ffffffffffffffff81111561267d57600080fd5b61268987828801612527565b91505092959194509250565b600080604083850312156126a857600080fd5b60006126b6858286016124d3565b92505060206126c7858286016124e8565b9150509250929050565b600080604083850312156126e457600080fd5b60006126f2858286016124d3565b925050602061270385828601612551565b9150509250929050565b60006020828403121561271f57600080fd5b600061272d848285016124fd565b91505092915050565b60006020828403121561274857600080fd5b600061275684828501612512565b91505092915050565b60006020828403121561277157600080fd5b600061277f84828501612551565b91505092915050565b6127918161394d565b82525050565b6127a08161395f565b82525050565b60006127b1826137f5565b6127bb818561380b565b93506127cb8185602086016139d0565b6127d481613b6b565b840191505092915050565b60006127ea82613800565b6127f4818561381c565b93506128048185602086016139d0565b61280d81613b6b565b840191505092915050565b600061282382613800565b61282d818561382d565b935061283d8185602086016139d0565b80840191505092915050565b6000815461285681613a03565b612860818661382d565b9450600182166000811461287b576001811461288c576128bf565b60ff198316865281860193506128bf565b612895856137e0565b60005b838110156128b757815481890152600182019150602081019050612898565b838801955050505b50505092915050565b60006128d560258361382d565b91507f68747470733a2f2f6e6674707265766965772e30786465762e636f6465732f3f60008301527f636f64653d0000000000000000000000000000000000000000000000000000006020830152602582019050919050565b600061293b60328361381c565b91507f4552433732313a207472616e7366657220746f206e6f6e20455243373231526560008301527f63656976657220696d706c656d656e74657200000000000000000000000000006020830152604082019050919050565b60006129a160178361381c565b91507f4d6178204e465473206d696e7465642e20536f727279210000000000000000006000830152602082019050919050565b60006129e1601c8361381c565b91507f4552433732313a20746f6b656e20616c7265616479206d696e746564000000006000830152602082019050919050565b6000612a21600a8361382d565b91507f54484952445f574f5244000000000000000000000000000000000000000000006000830152600a82019050919050565b6000612a6160248361381c565b91507f4552433732313a207472616e7366657220746f20746865207a65726f2061646460008301527f72657373000000000000000000000000000000000000000000000000000000006020830152604082019050919050565b6000612ac760198361381c565b91507f4552433732313a20617070726f766520746f2063616c6c6572000000000000006000830152602082019050919050565b6000612b0760638361382d565b91507f222c20226465736372697074696f6e223a20224120686967686c79206163636c60008301527f61696d656420636f6c6c656374696f6e206f6620737175617265732e222c202260208301527f696d616765223a2022646174613a696d6167652f7376672b786d6c3b6261736560408301527f36342c00000000000000000000000000000000000000000000000000000000006060830152606382019050919050565b6000612bb9600b8361382d565b91507f5345434f4e445f574f52440000000000000000000000000000000000000000006000830152600b82019050919050565b6000612bf9602c8361381c565b91507f4552433732313a206f70657261746f7220717565727920666f72206e6f6e657860008301527f697374656e7420746f6b656e00000000000000000000000000000000000000006020830152604082019050919050565b6000612c5f600d8361382d565b91507f3c2f746578743e3c2f7376673e000000000000000000000000000000000000006000830152600d82019050919050565b6000612c9f60018361382d565b91507f20000000000000000000000000000000000000000000000000000000000000006000830152600182019050919050565b6000612cdf60388361381c565b91507f4552433732313a20617070726f76652063616c6c6572206973206e6f74206f7760008301527f6e6572206e6f7220617070726f76656420666f7220616c6c00000000000000006020830152604082019050919050565b6000612d45602a8361381c565b91507f4552433732313a2062616c616e636520717565727920666f7220746865207a6560008301527f726f2061646472657373000000000000000000000000000000000000000000006020830152604082019050919050565b6000612dab60298361381c565b91507f4552433732313a206f776e657220717565727920666f72206e6f6e657869737460008301527f656e7420746f6b656e00000000000000000000000000000000000000000000006020830152604082019050919050565b6000612e11602e8361381c565b91507f45524337323155524953746f726167653a2055524920736574206f66206e6f6e60008301527f6578697374656e7420746f6b656e0000000000000000000000000000000000006020830152604082019050919050565b6000612e7760028361382d565b91507f227d0000000000000000000000000000000000000000000000000000000000006000830152600282019050919050565b6000612eb760208361381c565b91507f4552433732313a206d696e7420746f20746865207a65726f20616464726573736000830152602082019050919050565b6000612ef760318361381c565b91507f45524337323155524953746f726167653a2055524920717565727920666f722060008301527f6e6f6e6578697374656e7420746f6b656e0000000000000000000000000000006020830152604082019050919050565b6000612f5d602c8361381c565b91507f4552433732313a20617070726f76656420717565727920666f72206e6f6e657860008301527f697374656e7420746f6b656e00000000000000000000000000000000000000006020830152604082019050919050565b6000612fc360298361381c565b91507f4552433732313a207472616e73666572206f6620746f6b656e2074686174206960008301527f73206e6f74206f776e00000000000000000000000000000000000000000000006020830152604082019050919050565b6000613029602f8361381c565b91507f4552433732314d657461646174613a2055524920717565727920666f72206e6f60008301527f6e6578697374656e7420746f6b656e00000000000000000000000000000000006020830152604082019050919050565b600061308f600a8361382d565b91507f7b226e616d65223a2022000000000000000000000000000000000000000000006000830152600a82019050919050565b60006130cf60218361381c565b91507f4552433732313a20617070726f76616c20746f2063757272656e74206f776e6560008301527f72000000000000000000000000000000000000000000000000000000000000006020830152604082019050919050565b6000613135600a8361382d565b91507f46495253545f574f5244000000000000000000000000000000000000000000006000830152600a82019050919050565b6000613175601d8361382d565b91507f646174613a6170706c69636174696f6e2f6a736f6e3b6261736536342c0000006000830152601d82019050919050565b60006131b560318361381c565b91507f4552433732313a207472616e736665722063616c6c6572206973206e6f74206f60008301527f776e6572206e6f7220617070726f7665640000000000000000000000000000006020830152604082019050919050565b600061321b60058361382d565b91507f434f4c4f520000000000000000000000000000000000000000000000000000006000830152600582019050919050565b613257816139b7565b82525050565b60006132698284612818565b915081905092915050565b60006132808285612818565b915061328c8284612818565b91508190509392505050565b60006132a48286612818565b91506132af82612c92565b91506132bb8285612818565b91506132c682612c92565b91506132d28284612818565b9150819050949350505050565b60006132eb8287612849565b91506132f78286612818565b91506133038285612849565b915061330f8284612818565b915061331a82612c52565b915081905095945050505050565b6000613333826128c8565b915061333f8284612818565b915081905092915050565b600061335582612a14565b91506133618284612818565b915081905092915050565b600061337782612bac565b91506133838284612818565b915081905092915050565b600061339982613082565b91506133a58285612818565b91506133b082612afa565b91506133bc8284612818565b91506133c782612e6a565b91508190509392505050565b60006133de82613128565b91506133ea8284612818565b915081905092915050565b600061340082613168565b915061340c8284612818565b915081905092915050565b60006134228261320e565b915061342e8284612818565b915081905092915050565b600060208201905061344e6000830184612788565b92915050565b60006080820190506134696000830187612788565b6134766020830186612788565b613483604083018561324e565b818103606083015261349581846127a6565b905095945050505050565b60006040820190506134b56000830185612788565b6134c2602083018461324e565b9392505050565b60006020820190506134de6000830184612797565b92915050565b600060208201905081810360008301526134fe81846127df565b905092915050565b6000606082019050818103600083015261352081866127df565b905061352f602083018561324e565b61353c6040830184612788565b949350505050565b6000602082019050818103600083015261355d8161292e565b9050919050565b6000602082019050818103600083015261357d81612994565b9050919050565b6000602082019050818103600083015261359d816129d4565b9050919050565b600060208201905081810360008301526135bd81612a54565b9050919050565b600060208201905081810360008301526135dd81612aba565b9050919050565b600060208201905081810360008301526135fd81612bec565b9050919050565b6000602082019050818103600083015261361d81612cd2565b9050919050565b6000602082019050818103600083015261363d81612d38565b9050919050565b6000602082019050818103600083015261365d81612d9e565b9050919050565b6000602082019050818103600083015261367d81612e04565b9050919050565b6000602082019050818103600083015261369d81612eaa565b9050919050565b600060208201905081810360008301526136bd81612eea565b9050919050565b600060208201905081810360008301526136dd81612f50565b9050919050565b600060208201905081810360008301526136fd81612fb6565b9050919050565b6000602082019050818103600083015261371d8161301c565b9050919050565b6000602082019050818103600083015261373d816130c2565b9050919050565b6000602082019050818103600083015261375d816131a8565b9050919050565b6000602082019050613779600083018461324e565b92915050565b6000604051905081810181811067ffffffffffffffff821117156137a6576137a5613b3c565b5b8060405250919050565b600067ffffffffffffffff8211156137cb576137ca613b3c565b5b601f19601f8301169050602081019050919050565b60008190508160005260206000209050919050565b600081519050919050565b600081519050919050565b600082825260208201905092915050565b600082825260208201905092915050565b600081905092915050565b6000613843826139b7565b915061384e836139b7565b9250827fffffffffffffffffffffffffffffffffffffffffffffffffffffffffffffffff0382111561388357613882613aaf565b5b828201905092915050565b6000613899826139b7565b91506138a4836139b7565b9250826138b4576138b3613ade565b5b828204905092915050565b60006138ca826139b7565b91506138d5836139b7565b9250817fffffffffffffffffffffffffffffffffffffffffffffffffffffffffffffffff048311821515161561390e5761390d613aaf565b5b828202905092915050565b6000613924826139b7565b915061392f836139b7565b92508282101561394257613941613aaf565b5b828203905092915050565b600061395882613997565b9050919050565b60008115159050919050565b60007fffffffff0000000000000000000000000000000000000000000000000000000082169050919050565b600073ffffffffffffffffffffffffffffffffffffffff82169050919050565b6000819050919050565b82818337600083830152505050565b60005b838110156139ee5780820151818401526020810190506139d3565b838111156139fd576000848401525b50505050565b60006002820490506001821680613a1b57607f821691505b60208210811415613a2f57613a2e613b0d565b5b50919050565b6000613a40826139b7565b91507fffffffffffffffffffffffffffffffffffffffffffffffffffffffffffffffff821415613a7357613a72613aaf565b5b600182019050919050565b6000613a89826139b7565b9150613a94836139b7565b925082613aa457613aa3613ade565b5b828206905092915050565b7f4e487b7100000000000000000000000000000000000000000000000000000000600052601160045260246000fd5b7f4e487b7100000000000000000000000000000000000000000000000000000000600052601260045260246000fd5b7f4e487b7100000000000000000000000000000000000000000000000000000000600052602260045260246000fd5b7f4e487b7100000000000000000000000000000000000000000000000000000000600052604160045260246000fd5b6000601f19601f8301169050919050565b613b858161394d565b8114613b9057600080fd5b50565b613b9c8161395f565b8114613ba757600080fd5b50565b613bb38161396b565b8114613bbe57600080fd5b50565b613bca816139b7565b8114613bd557600080fd5b5056fe416e204e465420772f20494420257320686173206265656e206d696e74656420746f2025734142434445464748494a4b4c4d4e4f505152535455565758595a6162636465666768696a6b6c6d6e6f707172737475767778797a303132333435363738392b2fa2646970667358221220136c86261ef8e95ff848ddbe48e14347c4336324998501da26acf1234838c9af64736f6c634300080000333c73766720786d6c6e733d27687474703a2f2f7777772e77332e6f72672f323030302f73766727207072657365727665417370656374526174696f3d27784d696e594d696e206d656574272076696577426f783d273020302033353020333530273e3c7374796c653e2e62617365207b2066696c6c3a2077686974653b20666f6e742d66616d696c793a2073657269663b20666f6e742d73697a653a20323470783b207d3c2f7374796c653e3c726563742077696474683d273130302527206865696768743d2731303025272066696c6c3d27272f3e3c7465787420783d273530252720793d273530252720636c6173733d27626173652720646f6d696e616e742d626173656c696e653d276d6964646c652720746578742d616e63686f723d276d6964646c65273e",
  "linkReferences": {},
  "deployedLinkReferences": {}
}